{
  "_format": "hh-sol-artifact-1",
  "contractName": "GenkiFiCore",
  "sourceName": "contracts/GenkiFiCore.sol",
  "abi": [
    {
      "inputs": [],
      "stateMutability": "nonpayable",
      "type": "constructor"
    },
    {
      "inputs": [
        {
          "internalType": "address",
          "name": "owner",
          "type": "address"
        }
      ],
      "name": "OwnableInvalidOwner",
      "type": "error"
    },
    {
      "inputs": [
        {
          "internalType": "address",
          "name": "account",
          "type": "address"
        }
      ],
      "name": "OwnableUnauthorizedAccount",
      "type": "error"
    },
    {
      "inputs": [],
      "name": "ReentrancyGuardReentrantCall",
      "type": "error"
    },
    {
      "inputs": [
        {
          "internalType": "address",
          "name": "token",
          "type": "address"
        }
      ],
      "name": "SafeERC20FailedOperation",
      "type": "error"
    },
    {
      "anonymous": false,
      "inputs": [
        {
          "indexed": true,
          "internalType": "uint256",
          "name": "circleId",
          "type": "uint256"
        },
        {
          "indexed": true,
          "internalType": "address",
          "name": "creator",
          "type": "address"
        },
        {
          "indexed": false,
          "internalType": "string",
          "name": "name",
          "type": "string"
        },
        {
          "indexed": false,
          "internalType": "string[]",
          "name": "tags",
          "type": "string[]"
        },
        {
          "indexed": false,
          "internalType": "uint256",
          "name": "timestamp",
          "type": "uint256"
        }
      ],
      "name": "CircleCreated",
      "type": "event"
    },
    {
      "anonymous": false,
      "inputs": [
        {
          "indexed": true,
          "internalType": "uint256",
          "name": "circleId",
          "type": "uint256"
        },
        {
          "indexed": false,
          "internalType": "uint256",
          "name": "totalValue",
          "type": "uint256"
        },
        {
          "indexed": false,
          "internalType": "uint256",
          "name": "memberCount",
          "type": "uint256"
        },
        {
          "indexed": false,
          "internalType": "uint256",
          "name": "timestamp",
          "type": "uint256"
        }
      ],
      "name": "CircleUpdated",
      "type": "event"
    },
    {
      "anonymous": false,
      "inputs": [
        {
          "indexed": true,
          "internalType": "address",
          "name": "user",
          "type": "address"
        },
        {
          "indexed": false,
          "internalType": "uint256",
          "name": "xpEarned",
          "type": "uint256"
        },
        {
          "indexed": false,
          "internalType": "uint256",
          "name": "totalXP",
          "type": "uint256"
        },
        {
          "indexed": false,
          "internalType": "uint256",
          "name": "timestamp",
          "type": "uint256"
        }
      ],
      "name": "DailyWorkoutCompleted",
      "type": "event"
    },
    {
      "anonymous": false,
      "inputs": [
        {
          "indexed": true,
          "internalType": "address",
          "name": "previousOwner",
          "type": "address"
        },
        {
          "indexed": true,
          "internalType": "address",
          "name": "newOwner",
          "type": "address"
        }
      ],
      "name": "OwnershipTransferred",
      "type": "event"
    },
    {
      "anonymous": false,
      "inputs": [
        {
          "indexed": true,
          "internalType": "uint256",
          "name": "circleId",
          "type": "uint256"
        },
        {
          "indexed": true,
          "internalType": "address",
          "name": "user",
          "type": "address"
        },
        {
          "indexed": false,
          "internalType": "uint256",
          "name": "amount",
          "type": "uint256"
        },
        {
          "indexed": false,
          "internalType": "uint256",
          "name": "xpEarned",
          "type": "uint256"
        },
        {
          "indexed": false,
          "internalType": "uint256",
          "name": "timestamp",
          "type": "uint256"
        }
      ],
      "name": "UserJoinedCircle",
      "type": "event"
    },
    {
      "anonymous": false,
      "inputs": [
        {
          "indexed": true,
          "internalType": "address",
          "name": "user",
          "type": "address"
        },
        {
          "indexed": false,
          "internalType": "uint256",
          "name": "amount",
          "type": "uint256"
        },
        {
          "indexed": false,
          "internalType": "uint256",
          "name": "totalXP",
          "type": "uint256"
        },
        {
          "indexed": false,
          "internalType": "uint256",
          "name": "newLevel",
          "type": "uint256"
        },
        {
          "indexed": false,
          "internalType": "uint256",
          "name": "timestamp",
          "type": "uint256"
        }
      ],
      "name": "XPAdded",
      "type": "event"
    },
    {
      "inputs": [],
      "name": "CUSD_ADDRESS",
      "outputs": [
        {
          "internalType": "address",
          "name": "",
          "type": "address"
        }
      ],
      "stateMutability": "view",
      "type": "function"
    },
    {
      "inputs": [],
      "name": "MAX_CIRCLE_MEMBERS",
      "outputs": [
        {
          "internalType": "uint256",
          "name": "",
          "type": "uint256"
        }
      ],
      "stateMutability": "view",
      "type": "function"
    },
    {
      "inputs": [],
      "name": "MIN_JOIN_AMOUNT",
      "outputs": [
        {
          "internalType": "uint256",
          "name": "",
          "type": "uint256"
        }
      ],
      "stateMutability": "view",
      "type": "function"
    },
    {
      "inputs": [],
      "name": "XP_CREATE_CIRCLE",
      "outputs": [
        {
          "internalType": "uint256",
          "name": "",
          "type": "uint256"
        }
      ],
      "stateMutability": "view",
      "type": "function"
    },
    {
      "inputs": [],
      "name": "XP_DAILY_WORKOUT",
      "outputs": [
        {
          "internalType": "uint256",
          "name": "",
          "type": "uint256"
        }
      ],
      "stateMutability": "view",
      "type": "function"
    },
    {
      "inputs": [],
      "name": "XP_JOIN_CIRCLE",
      "outputs": [
        {
          "internalType": "uint256",
          "name": "",
          "type": "uint256"
        }
      ],
      "stateMutability": "view",
      "type": "function"
    },
    {
      "inputs": [
        {
          "internalType": "uint256",
          "name": "",
          "type": "uint256"
        }
      ],
      "name": "circles",
      "outputs": [
        {
          "internalType": "uint256",
          "name": "id",
          "type": "uint256"
        },
        {
          "internalType": "string",
          "name": "name",
          "type": "string"
        },
        {
          "internalType": "address",
          "name": "creator",
          "type": "address"
        },
        {
          "internalType": "uint256",
          "name": "totalValue",
          "type": "uint256"
        },
        {
          "internalType": "uint256",
          "name": "minInvestment",
          "type": "uint256"
        },
        {
          "internalType": "uint256",
          "name": "createdAt",
          "type": "uint256"
        },
        {
          "internalType": "bool",
          "name": "isActive",
          "type": "bool"
        }
      ],
      "stateMutability": "view",
      "type": "function"
    },
    {
      "inputs": [],
      "name": "completeDailyWorkout",
      "outputs": [],
      "stateMutability": "nonpayable",
      "type": "function"
    },
    {
      "inputs": [
        {
          "internalType": "string",
          "name": "_name",
          "type": "string"
        },
        {
          "internalType": "string[]",
          "name": "_tags",
          "type": "string[]"
        },
        {
          "internalType": "uint256",
          "name": "_minInvestment",
          "type": "uint256"
        }
      ],
      "name": "createCircle",
      "outputs": [
        {
          "internalType": "uint256",
          "name": "",
          "type": "uint256"
        }
      ],
      "stateMutability": "nonpayable",
      "type": "function"
    },
    {
      "inputs": [
        {
          "internalType": "address",
          "name": "",
          "type": "address"
        }
      ],
      "name": "dailyWorkoutCount",
      "outputs": [
        {
          "internalType": "uint256",
          "name": "",
          "type": "uint256"
        }
      ],
      "stateMutability": "view",
      "type": "function"
    },
    {
      "inputs": [
        {
          "internalType": "uint256",
          "name": "_circleId",
          "type": "uint256"
        }
      ],
      "name": "deactivateCircle",
      "outputs": [],
      "stateMutability": "nonpayable",
      "type": "function"
    },
    {
      "inputs": [
        {
          "internalType": "uint256",
          "name": "_amount",
          "type": "uint256"
        }
      ],
      "name": "emergencyWithdraw",
      "outputs": [],
      "stateMutability": "nonpayable",
      "type": "function"
    },
    {
      "inputs": [
        {
          "internalType": "uint256",
          "name": "_circleId",
          "type": "uint256"
        }
      ],
      "name": "getCircleInfo",
      "outputs": [
        {
          "components": [
            {
              "internalType": "uint256",
              "name": "id",
              "type": "uint256"
            },
            {
              "internalType": "string",
              "name": "name",
              "type": "string"
            },
            {
              "internalType": "string[]",
              "name": "tags",
              "type": "string[]"
            },
            {
              "internalType": "address",
              "name": "creator",
              "type": "address"
            },
            {
              "internalType": "address[]",
              "name": "members",
              "type": "address[]"
            },
            {
              "internalType": "uint256",
              "name": "totalValue",
              "type": "uint256"
            },
            {
              "internalType": "uint256",
              "name": "minInvestment",
              "type": "uint256"
            },
            {
              "internalType": "uint256",
              "name": "createdAt",
              "type": "uint256"
            },
            {
              "internalType": "bool",
              "name": "isActive",
              "type": "bool"
            }
          ],
          "internalType": "struct GenkiFiCore.Circle",
          "name": "",
          "type": "tuple"
        }
      ],
      "stateMutability": "view",
      "type": "function"
    },
    {
      "inputs": [
        {
          "internalType": "uint256",
          "name": "_circleId",
          "type": "uint256"
        }
      ],
      "name": "getCircleMembers",
      "outputs": [
        {
          "internalType": "address[]",
          "name": "",
          "type": "address[]"
        }
      ],
      "stateMutability": "view",
      "type": "function"
    },
    {
      "inputs": [],
      "name": "getContractBalance",
      "outputs": [
        {
          "internalType": "uint256",
          "name": "",
          "type": "uint256"
        }
      ],
      "stateMutability": "view",
      "type": "function"
    },
    {
      "inputs": [],
      "name": "getTotalCircles",
      "outputs": [
        {
          "internalType": "uint256",
          "name": "",
          "type": "uint256"
        }
      ],
      "stateMutability": "view",
      "type": "function"
    },
    {
      "inputs": [],
      "name": "getTotalUsers",
      "outputs": [
        {
          "internalType": "uint256",
          "name": "",
          "type": "uint256"
        }
      ],
      "stateMutability": "view",
      "type": "function"
    },
    {
      "inputs": [
        {
          "internalType": "address",
          "name": "_user",
          "type": "address"
        }
      ],
      "name": "getUserCircles",
      "outputs": [
        {
          "internalType": "uint256[]",
          "name": "",
          "type": "uint256[]"
        }
      ],
      "stateMutability": "view",
      "type": "function"
    },
    {
      "inputs": [
        {
          "internalType": "address",
          "name": "_user",
          "type": "address"
        }
      ],
      "name": "getUserXP",
      "outputs": [
        {
          "internalType": "uint256",
          "name": "xp",
          "type": "uint256"
        },
        {
          "internalType": "uint256",
          "name": "level",
          "type": "uint256"
        },
        {
          "internalType": "uint256",
          "name": "nextLevelXP",
          "type": "uint256"
        }
      ],
      "stateMutability": "view",
      "type": "function"
    },
    {
      "inputs": [
        {
          "internalType": "uint256",
          "name": "_circleId",
          "type": "uint256"
        },
        {
          "internalType": "uint256",
          "name": "_amount",
          "type": "uint256"
        }
      ],
      "name": "joinCircle",
      "outputs": [],
      "stateMutability": "nonpayable",
      "type": "function"
    },
    {
      "inputs": [],
      "name": "nextCircleId",
      "outputs": [
        {
          "internalType": "uint256",
          "name": "",
          "type": "uint256"
        }
      ],
      "stateMutability": "view",
      "type": "function"
    },
    {
      "inputs": [],
      "name": "owner",
      "outputs": [
        {
          "internalType": "address",
          "name": "",
          "type": "address"
        }
      ],
      "stateMutability": "view",
      "type": "function"
    },
    {
      "inputs": [],
      "name": "renounceOwnership",
      "outputs": [],
      "stateMutability": "nonpayable",
      "type": "function"
    },
    {
      "inputs": [],
      "name": "totalUsers",
      "outputs": [
        {
          "internalType": "uint256",
          "name": "",
          "type": "uint256"
        }
      ],
      "stateMutability": "view",
      "type": "function"
    },
    {
      "inputs": [
        {
          "internalType": "address",
          "name": "newOwner",
          "type": "address"
        }
      ],
      "name": "transferOwnership",
      "outputs": [],
      "stateMutability": "nonpayable",
      "type": "function"
    },
    {
      "inputs": [],
      "name": "usdc",
      "outputs": [
        {
          "internalType": "contract IERC20",
          "name": "",
          "type": "address"
        }
      ],
      "stateMutability": "view",
      "type": "function"
    },
    {
      "inputs": [
        {
          "internalType": "address",
          "name": "",
          "type": "address"
        },
        {
          "internalType": "uint256",
          "name": "",
          "type": "uint256"
        }
      ],
      "name": "userInCircle",
      "outputs": [
        {
          "internalType": "bool",
          "name": "",
          "type": "bool"
        }
      ],
      "stateMutability": "view",
      "type": "function"
    },
    {
      "inputs": [
        {
          "internalType": "address",
          "name": "",
          "type": "address"
        }
      ],
      "name": "users",
      "outputs": [
        {
          "internalType": "uint256",
          "name": "xp",
          "type": "uint256"
        },
        {
          "internalType": "uint256",
          "name": "level",
          "type": "uint256"
        },
        {
          "internalType": "uint256",
          "name": "lastWorkoutTime",
          "type": "uint256"
        },
        {
          "internalType": "bool",
          "name": "exists",
          "type": "bool"
        }
      ],
      "stateMutability": "view",
      "type": "function"
    }
  ],
  "bytecode": "0x6080604052348015600f57600080fd5b5060016000553380603a57604051631e4fbdf760e01b81526000600482015260240160405180910390fd5b604181606c565b50600280546001600160a01b03191673874069fa1eb16d44d622f2e0ca25eea172369bc117905560be565b600180546001600160a01b038381166001600160a01b0319831681179093556040519116919082907f8be0079c531659141344cd1fd0a4f28419497f9722a3daafe3b4186f6b6457e090600090a35050565b612474806100cd6000396000f3fe608060405234801561001057600080fd5b50600436106101c45760003560e01c80638da5cb5b116100f9578063bc5e0f3011610097578063da5f5cff11610071578063da5f5cff146103f9578063e02d713f14610419578063e9e7eb3514610424578063f2fde38b1461045257600080fd5b8063bc5e0f30146103aa578063bff1f9e1146103d0578063cb815ab9146103d957600080fd5b8063a7a2b4f0116100d3578063a7a2b4f01461032d578063a87430ba14610335578063a9ccd11e1461038f578063b631ea9f146103a257600080fd5b80638da5cb5b1461030c578063982141001461031d5780639be572f61461032557600080fd5b8063471cbff81161016657806354ab79091161014057806354ab7909146102d45780636f9fb98a146102dc578063715018a6146102e457806388e81d8a146102ec57600080fd5b8063471cbff8146102a55780634d0b8ae0146102ae5780635312ea8e146102c157600080fd5b80631969f60a116101a25780631969f60a1461024257806337ffe391146102555780633e413bee1461025f578063465c66e91461028a57600080fd5b806306973b0b146101c95780630a97d3061461020c578063123530761461023a575b600080fd5b6101f76101d7366004611d42565b600760209081526000928352604080842090915290825290205460ff1681565b60405190151581526020015b60405180910390f35b61022c61021a366004611d6c565b60086020526000908152604090205481565b604051908152602001610203565b60035461022c565b61022c610250366004611e3e565b610465565b61025d610905565b005b600254610272906001600160a01b031681565b6040516001600160a01b039091168152602001610203565b61027273874069fa1eb16d44d622f2e0ca25eea172369bc181565b61022c60035481565b61025d6102bc366004611f46565b610a46565b61025d6102cf366004611f68565b610f99565b61022c600c81565b61022c611086565b61025d6110f8565b6102ff6102fa366004611d6c565b61110a565b6040516102039190611f81565b6001546001600160a01b0316610272565b61022c603281565b60045461022c565b61022c601981565b61036d610343366004611d6c565b60066020526000908152604090208054600182015460028301546004909301549192909160ff1684565b6040805194855260208501939093529183015215156060820152608001610203565b61025d61039d366004611f68565b6111b5565b61022c600a81565b6103bd6103b8366004611f68565b611279565b604051610203979695949392919061200a565b61022c60045481565b6103ec6103e7366004611f68565b61134a565b604051610203919061209d565b61040c610407366004611f68565b61140e565b604051610203919061210c565b61022c6302faf08081565b610437610432366004611d6c565b6116f6565b60408051938452602084019290925290820152606001610203565b61025d610460366004611d6c565b611782565b600061046f6117bd565b60008451116104c55760405162461bcd60e51b815260206004820152601b60248201527f436972636c65206e616d652063616e6e6f7420626520656d707479000000000060448201526064015b60405180910390fd5b60008351116105165760405162461bcd60e51b815260206004820152601d60248201527f4d7573742070726f76696465206174206c65617374206f6e652074616700000060448201526064016104bc565b6005835111156105615760405162461bcd60e51b815260206004820152601660248201527513585e1a5b5d5b480d481d1859dcc8185b1b1bddd95960521b60448201526064016104bc565b600082116105c35760405162461bcd60e51b815260206004820152602960248201527f4d696e696d756d20696e766573746d656e74206d75737420626520677265617460448201526806572207468616e20360bc1b60648201526084016104bc565b60038054600091826105d4836121df565b9091555060408051610120810182528281526020808201898152828401899052336060840152835160008082528184018652608085019190915260a0840181905260c084018990524260e085015260016101008501819052868252600590935293909320825181559251939450909290820190610651908261227a565b506040820151805161066d916002840191602090910190611bc8565b5060608201516003820180546001600160a01b0319166001600160a01b03909216919091179055608082015180516106af916004840191602090910190611c1e565b5060a082015160058083019190915560c083015160068084019190915560e0840151600780850191909155610100909401516008909301805493151560ff1994851617905560008581526020928352604080822060049081018054600181810183559185528685200180546001600160a01b031916339081179091558085529786528284208985528652828420805490971617909555948152915291909120015460ff16610839576040518060a00160405280600081526020016001815260200160008152602001600067ffffffffffffffff81111561079157610791611d87565b6040519080825280602002602001820160405280156107ba578160200160208202803683370190505b5081526001602091820181905233600090815260068352604090819020845181558484015192810192909255830151600282015560608301518051919261080992600385019290910190611c7f565b50608091909101516004918201805460ff19169115159190911790558054906000610833836121df565b91905055505b336000818152600660209081526040822060030180546001810182559083529120018290556108699060326117e7565b336001600160a01b0316817fc5826d5bb8de04330f1d544b27684797aff57a42a95c08fb3334c9a5e6bff7128787426040516108a793929190612339565b60405180910390a36040805160008152600160208201524281830152905182917ffc24e1e8ef3a5f348a87df0bb3fcbedf515bdcebac14321aa56f4eb7294bc122919081900360600190a290506108fe6001600055565b9392505050565b61090d6117bd565b3360009081526006602052604090206004015460ff1661093f5760405162461bcd60e51b81526004016104bc9061236f565b336000908152600660205260409020600201546201518090610961904261239c565b10156109af5760405162461bcd60e51b815260206004820152601f60248201527f576f726b6f757420616c726561647920636f6d706c6574656420746f6461790060448201526064016104bc565b33600090815260066020908152604080832042600290910155600890915281208054916109db836121df565b91905055506109eb33600a6117e7565b33600081815260066020908152604091829020548251600a815291820152428183015290517fff73684f02b104336c39add6bcca27423b9c4c1e762c16ed453f5d6f576fa7299181900360600190a2610a446001600055565b565b610a4e6117bd565b816003548110610a705760405162461bcd60e51b81526004016104bc906123b5565b60008181526005602052604090206008015460ff16610aa15760405162461bcd60e51b81526004016104bc906123e4565b600081815260056020526040902060040154600c11610af35760405162461bcd60e51b815260206004820152600e60248201526d10da5c98db19481a5cc8199d5b1b60921b60448201526064016104bc565b33600090815260076020908152604080832084845290915290205460ff1615610b525760405162461bcd60e51b8152602060048201526011602482015270416c726561647920696e20636972636c6560781b60448201526064016104bc565b600083815260056020526040902060060154821015610bc45760405162461bcd60e51b815260206004820152602860248201527f416d6f756e742062656c6f77206d696e696d756d20696e766573746d656e74206044820152671c995c5d5a5c995960c21b60648201526084016104bc565b6002546040516370a0823160e01b815233600482015283916001600160a01b0316906370a0823190602401602060405180830381865afa158015610c0c573d6000803e3d6000fd5b505050506040513d601f19601f82011682018060405250810190610c309190612412565b1015610c7e5760405162461bcd60e51b815260206004820152601960248201527f496e73756666696369656e7420555344432062616c616e63650000000000000060448201526064016104bc565b600254604051636eb1769f60e11b815233600482015230602482015283916001600160a01b03169063dd62ed3e90604401602060405180830381865afa158015610ccc573d6000803e3d6000fd5b505050506040513d601f19601f82011682018060405250810190610cf09190612412565b1015610d3e5760405162461bcd60e51b815260206004820152601b60248201527f496e73756666696369656e74205553444320616c6c6f77616e6365000000000060448201526064016104bc565b600254610d56906001600160a01b03163330856118e8565b6000838152600560208181526040832060048101805460018101825590855291842090910180546001600160a01b03191633179055858352018054849290610d9f90849061242b565b90915550503360008181526007602090815260408083208784528252808320805460ff1916600117905592825260069052206004015460ff16610ebe576040518060a00160405280600081526020016001815260200160008152602001600067ffffffffffffffff811115610e1657610e16611d87565b604051908082528060200260200182016040528015610e3f578160200160208202803683370190505b50815260016020918201819052336000908152600683526040908190208451815584840151928101929092558301516002820155606083015180519192610e8e92600385019290910190611c7f565b50608091909101516004918201805460ff19169115159190911790558054906000610eb8836121df565b91905055505b33600081815260066020908152604082206003018054600181018255908352912001849055610eee9060196117e7565b604080518381526019602082015242818301529051339185917f3955f0b6ee090f5512b428df552421028d64b2e10e4dde19cdf0eea0db1081189181900360600190a3600083815260056020818152604092839020918201546004909201548351928352908201524281830152905184917ffc24e1e8ef3a5f348a87df0bb3fcbedf515bdcebac14321aa56f4eb7294bc122919081900360600190a250610f956001600055565b5050565b610fa1611955565b6002546040516370a0823160e01b815230600482015282916001600160a01b0316906370a0823190602401602060405180830381865afa158015610fe9573d6000803e3d6000fd5b505050506040513d601f19601f8201168201806040525081019061100d9190612412565b101561105b5760405162461bcd60e51b815260206004820152601d60248201527f496e73756666696369656e7420636f6e74726163742062616c616e636500000060448201526064016104bc565b6110836110706001546001600160a01b031690565b6002546001600160a01b03169083611982565b50565b6002546040516370a0823160e01b81523060048201526000916001600160a01b0316906370a0823190602401602060405180830381865afa1580156110cf573d6000803e3d6000fd5b505050506040513d601f19601f820116820180604052508101906110f39190612412565b905090565b611100611955565b610a4460006119b8565b6001600160a01b03811660009081526006602052604090206004015460609060ff166111485760405162461bcd60e51b81526004016104bc9061236f565b6001600160a01b038216600090815260066020908152604091829020600301805483518184028101840190945280845290918301828280156111a957602002820191906000526020600020905b815481526020019060010190808311611195575b50505050509050919050565b6111bd611955565b8060035481106111df5760405162461bcd60e51b81526004016104bc906123b5565b60008181526005602052604090206008015460ff166112105760405162461bcd60e51b81526004016104bc906123e4565b60008281526005602081815260409283902060088101805460ff19169055918201546004909201548351928352908201524281830152905183917ffc24e1e8ef3a5f348a87df0bb3fcbedf515bdcebac14321aa56f4eb7294bc122919081900360600190a25050565b6005602052600090815260409020805460018201805491929161129b906121f8565b80601f01602080910402602001604051908101604052809291908181526020018280546112c7906121f8565b80156113145780601f106112e957610100808354040283529160200191611314565b820191906000526020600020905b8154815290600101906020018083116112f757829003601f168201915b505050600384015460058501546006860154600787015460089097015495966001600160a01b0390931695919450925060ff1687565b606081600354811061136e5760405162461bcd60e51b81526004016104bc906123b5565b60008181526005602052604090206008015460ff1661139f5760405162461bcd60e51b81526004016104bc906123e4565b6000838152600560209081526040918290206004018054835181840281018401909452808452909183018282801561140057602002820191906000526020600020905b81546001600160a01b031681526001909101906020018083116113e2575b505050505091505b50919050565b61146860405180610120016040528060008152602001606081526020016060815260200160006001600160a01b03168152602001606081526020016000815260200160008152602001600081526020016000151581525090565b81600354811061148a5760405162461bcd60e51b81526004016104bc906123b5565b60008181526005602052604090206008015460ff166114bb5760405162461bcd60e51b81526004016104bc906123e4565b6005600084815260200190815260200160002060405180610120016040529081600082015481526020016001820180546114f4906121f8565b80601f0160208091040260200160405190810160405280929190818152602001828054611520906121f8565b801561156d5780601f106115425761010080835404028352916020019161156d565b820191906000526020600020905b81548152906001019060200180831161155057829003601f168201915b5050505050815260200160028201805480602002602001604051908101604052809291908181526020016000905b828210156116475783829060005260206000200180546115ba906121f8565b80601f01602080910402602001604051908101604052809291908181526020018280546115e6906121f8565b80156116335780601f1061160857610100808354040283529160200191611633565b820191906000526020600020905b81548152906001019060200180831161161657829003601f168201915b50505050508152602001906001019061159b565b5050509082525060038201546001600160a01b031660208083019190915260048301805460408051828502810185018252828152940193928301828280156116b857602002820191906000526020600020905b81546001600160a01b0316815260019091019060200180831161169a575b505050918352505060058201546020820152600682015460408201526007820154606082015260089091015460ff1615156080909101529392505050565b6001600160a01b0381166000908152600660205260408120600401548190819060ff166117355760405162461bcd60e51b81526004016104bc9061236f565b6001600160a01b03841660009081526006602052604090208054600191820154909450925083906117709061176b90859061242b565b611a0a565b61177a919061239c565b929491935050565b61178a611955565b6001600160a01b0381166117b457604051631e4fbdf760e01b8152600060048201526024016104bc565b611083816119b8565b6002600054036117e057604051633ee5aeb560e01b815260040160405180910390fd5b6002600055565b6001600160a01b0382166000908152600660205260408120805483929061180f90849061242b565b90915550506001600160a01b03821660009081526006602052604081205461183690611aac565b6001600160a01b0384166000908152600660205260409020600101549091508082111561187c576001600160a01b03841660009081526006602052604090206001018290555b6001600160a01b03841660008181526006602090815260409182902080546001909101548351888152928301919091528183015242606082015290517fb8e5507ddadb1d4348f8769c1c783d1644e8b9ec42082d0626e1c88a9a8d67699181900360800190a250505050565b6040516001600160a01b03848116602483015283811660448301526064820183905261194f9186918216906323b872dd906084015b604051602081830303815290604052915060e01b6020820180516001600160e01b038381831617835250505050611b57565b50505050565b6001546001600160a01b03163314610a445760405163118cdaa760e01b81523360048201526024016104bc565b6040516001600160a01b038381166024830152604482018390526119b391859182169063a9059cbb9060640161191d565b505050565b600180546001600160a01b038381166001600160a01b0319831681179093556040519116919082907f8be0079c531659141344cd1fd0a4f28419497f9722a3daafe3b4186f6b6457e090600090a35050565b600060018211611a1c57506000919050565b60028211611a2c57506064919050565b60038211611a3d575061012c919050565b60048211611a4e5750610258919050565b60058211611a5f57506103e8919050565b60068211611a7057506105dc919050565b60078211611a815750610834919050565b60088211611a925750610af0919050565b60098211611aa35750610e10919050565b50611194919050565b60006064821015611abf57506001919050565b61012c821015611ad157506002919050565b610258821015611ae357506003919050565b6103e8821015611af557506004919050565b6105dc821015611b0757506005919050565b610834821015611b1957506006919050565b610af0821015611b2b57506007919050565b610e10821015611b3d57506008919050565b611194821015611b4f57506009919050565b50600a919050565b600080602060008451602086016000885af180611b7a576040513d6000823e3d81fd5b50506000513d91508115611b92578060011415611b9f565b6001600160a01b0384163b155b1561194f57604051635274afe760e01b81526001600160a01b03851660048201526024016104bc565b828054828255906000526020600020908101928215611c0e579160200282015b82811115611c0e5782518290611bfe908261227a565b5091602001919060010190611be8565b50611c1a929150611cba565b5090565b828054828255906000526020600020908101928215611c73579160200282015b82811115611c7357825182546001600160a01b0319166001600160a01b03909116178255602090920191600190910190611c3e565b50611c1a929150611cd7565b828054828255906000526020600020908101928215611c73579160200282015b82811115611c73578251825591602001919060010190611c9f565b80821115611c1a576000611cce8282611cec565b50600101611cba565b5b80821115611c1a5760008155600101611cd8565b508054611cf8906121f8565b6000825580601f10611d08575050565b601f0160209004906000526020600020908101906110839190611cd7565b80356001600160a01b0381168114611d3d57600080fd5b919050565b60008060408385031215611d5557600080fd5b611d5e83611d26565b946020939093013593505050565b600060208284031215611d7e57600080fd5b6108fe82611d26565b634e487b7160e01b600052604160045260246000fd5b604051601f8201601f1916810167ffffffffffffffff81118282101715611dc657611dc6611d87565b604052919050565b600082601f830112611ddf57600080fd5b813567ffffffffffffffff811115611df957611df9611d87565b611e0c601f8201601f1916602001611d9d565b818152846020838601011115611e2157600080fd5b816020850160208301376000918101602001919091529392505050565b600080600060608486031215611e5357600080fd5b833567ffffffffffffffff811115611e6a57600080fd5b611e7686828701611dce565b935050602084013567ffffffffffffffff811115611e9357600080fd5b8401601f81018613611ea457600080fd5b803567ffffffffffffffff811115611ebe57611ebe611d87565b8060051b611ece60208201611d9d565b91825260208184018101929081019089841115611eea57600080fd5b6020850192505b83831015611f3157823567ffffffffffffffff811115611f1057600080fd5b611f1f8b602083890101611dce565b83525060209283019290910190611ef1565b96999698505050506040949094013593505050565b60008060408385031215611f5957600080fd5b50508035926020909101359150565b600060208284031215611f7a57600080fd5b5035919050565b602080825282518282018190526000918401906040840190835b81811015611fb9578351835260209384019390920191600101611f9b565b509095945050505050565b6000815180845260005b81811015611fea57602081850181015186830182015201611fce565b506000602082860101526020601f19601f83011685010191505092915050565b87815260e06020820152600061202360e0830189611fc4565b6001600160a01b03979097166040830152506060810194909452608084019290925260a0830152151560c09091015292915050565b600081518084526020840193506020830160005b828110156120935781516001600160a01b031686526020958601959091019060010161206c565b5093949350505050565b6020815260006108fe6020830184612058565b600082825180855260208501945060208160051b8301016020850160005b8381101561210057601f198584030188526120ea838351611fc4565b60209889019890935091909101906001016120ce565b50909695505050505050565b6020815281516020820152600060208301516101206040840152612134610140840182611fc4565b90506040840151601f1984830301606085015261215182826120b0565b915050606084015161216e60808501826001600160a01b03169052565b506080840151838203601f190160a085015261218a8282612058565b91505060a084015160c084015260c084015160e084015260e08401516101008401526101008401516121c161012085018215159052565b509392505050565b634e487b7160e01b600052601160045260246000fd5b6000600182016121f1576121f16121c9565b5060010190565b600181811c9082168061220c57607f821691505b60208210810361140857634e487b7160e01b600052602260045260246000fd5b601f8211156119b357806000526020600020601f840160051c810160208510156122535750805b601f840160051c820191505b81811015612273576000815560010161225f565b5050505050565b815167ffffffffffffffff81111561229457612294611d87565b6122a8816122a284546121f8565b8461222c565b6020601f8211600181146122dc57600083156122c45750848201515b600019600385901b1c1916600184901b178455612273565b600084815260208120601f198516915b8281101561230c57878501518255602094850194600190920191016122ec565b508482101561232a5786840151600019600387901b60f8161c191681555b50505050600190811b01905550565b60608152600061234c6060830186611fc4565b828103602084015261235e81866120b0565b915050826040830152949350505050565b602080825260139082015272155cd95c88191bd95cc81b9bdd08195e1a5cdd606a1b604082015260600190565b818103818111156123af576123af6121c9565b92915050565b60208082526015908201527410da5c98db1948191bd95cc81b9bdd08195e1a5cdd605a1b604082015260600190565b602080825260149082015273436972636c65206973206e6f742061637469766560601b604082015260600190565b60006020828403121561242457600080fd5b5051919050565b808201808211156123af576123af6121c956fea26469706673582212204fcfc8300c7f84bf6cc5dfc87217010ea96eca0dc794bc96ec1072862f2889f164736f6c634300081c0033",
  "linkReferences": {},
  "deployedLinkReferences": {}
}